:020000023000CC
:10E0000071C000008FC000008DC000008BC00000F8
:10E0100089C0000087C0000085C0000083C00000E8
:10E0200081C000007FC000007DC000007BC00000F8
:10E0300079C0000077C0000075C0000073C0000008
:10E0400071C000006FC000006DC000006BC0000018
:10E0500069C0000067C0000065C0000063C0000028
:10E0600061C000005FC000005DC000005BC0000038
:10E0700059C0000057C0000055C0000053C0000048
:10E0800051C000004FC000004DC000004BC0000058
:10E0900049C0000047C0000045C0000043C0000068
:10E0A00041C000003FC000003DC000003BC0000078
:10E0B00039C0000037C0000035C0000033C0000088
:10E0C00031C000002FC000002DC000002BC0000098
:10E0D00029C0000027C0000025C0000023C00000A8
:10E0E00021C0000011241FBECFEFD1E2DEBFCDBFA3
:10E0F00001E00CBF14E0A0E0B2E0EAE8FCEF03E0CE
:10E100000BBF02C007900D92A835B107D9F725E0E3
:10E11000A8E5B4E001C01D92A637B207E1F790D49C
:10E120000D9443FE6DCF1F93CF93DF9360914C0509
:10E1300070914D0590E1899FA001112430E020E00D
:10E14000445A5B4FFB01E20FF31FDA01A20FB31F2A
:10E1500090E081911D91EF012197812788839F5F36
:10E160009430B9F72C5F3F4F2031310559F7DF91DB
:10E17000CF911F910895982F991F9927991F2BE1EF
:10E18000929F902D1124880F892708952F923F92F6
:10E190004F925F926F927F928F929F92AF92BF92B7
:10E1A000CF92DF92EF92FF920F931F93CF93DF9363
:10E1B00000D01F92CDB7DEB78EE0B5DF0DE08091C5
:10E1C0004C0590914D059A838983FC018585918545
:10E1D00095879581918791819583818382819285AD
:10E1E00092838287868196859683868783819781AD
:10E1F0009383938597839785938787877F019F0173
:10E2000094E0D90180E0EC91F0E0E15BFD4F4081CA
:10E210004C938F5F14968430B1F791502F5F3F4F2E
:10E220009111EFCF802F7FDF002309F462C0898135
:10E230009A8140969A838983F701B080C180D28009
:10E2400073808B2D98DF8B8396DF8C8394DF882EF1
:10E250008C2D91DF182F8FDF482E8DDF982E8D2D7E
:10E260008ADF282E88DF382E86DFA82E872D83DFD1
:10E27000582E81DF682E7FDF9B81FC819F279825A8
:10E280009127992593259A2598279C259D259725A3
:10E29000F7019083982D91279425992592259A2509
:10E2A000962598279B259D2597259183FC81F82508
:10E2B000F9252F2632243A24352438263B243C24C1
:10E2C0007324F7017282FB81F8254F269424A92438
:10E2D0005A2465248625B826CB24DC24F701D38272
:10E2E000F4E0EF0EF11C89819A818E159F0509F0EB
:10E2F000A3CF015008F063CF0F900F900F900F90B5
:10E30000DF91CF911F910F91FF90EF90DF90CF9011
:10E31000BF90AF909F908F907F906F905F904F9045
:10E320003F902F900895FC01A0915804B09159049A
:10E3300091E1915009F408952D9180818227819374
:10E34000F8CFCF93DF9300D01F92CDB7DEB7E09127
:10E350005A04F0915B0480E2ACE5B4E001900D92C8
:10E360008A95E1F7ECE5F4E088E09E012B5F3F4FF2
:10E37000448D558D668D778D49835A836B837C835D
:10E38000982F977009F042C099814A8149834B8147
:10E390004A834C814B839C83AE014F5F5F4FDA0110
:10E3A0009D91AD01BD0161507109A92FB0E0A15B44
:10E3B000BC4F9C91DB019C932417350781F7A82F54
:10E3C000A695A695A695B0E0AC5BBD4F99814C9102
:10E3D0009427998390814981942790A391814A81C0
:10E3E000942791A392814B81942792A393814C818E
:10E3F000942793A38F5F34968C3309F0B9CF0F9095
:10E400000F900F900F90DF91CF910895943011F7F6
:10E41000AE014F5F5F4FDA019D91AD01BD016150CB
:10E420007109A92FB0E0A15BBC4F9C91DB019C93CB
:10E430004217530781F7CECF8F929F92AF92BF9230
:10E44000CF92DF92EF92FF920F931F93CF93DF93C0
:10E450006C015B017A0130935B0420935A0471DFF5
:10E460001093590400935804D0E0C0E045018C0E8D
:10E470009D1E86010C0F1D1FCE15DF0568F0DF9174
:10E48000CF911F910F91FF90EF90DF90CF90BF90B1
:10E49000AF909F908F90089580E1F401D801019092
:10E4A0000D928A95E1F710934D0500934C056EDEB1
:10E4B000C80139DF90925904809258046096D6CFF3
:10E4C00028E0AC0146279695879540FF04C031E0CF
:10E4D000832730EA93276695215099F70895E1E064
:10E4E000F1E0808180688083E2E0F1E080818068F3
:10E4F00080830895E1E0F1E080818F778083E2E01E
:10E50000F1E080818F7780830895CF93DF93C2E01D
:10E51000D1E088818F77888385E00F94F2FC80E0DA
:10E520000F94F2FC988190689883DF91CF910895C1
:10E53000ECDF81700895CF93DF93C2E0D1E0888152
:10E540008F77888386E00F94F2FC888180688883C7
:10E55000DF91CF910895CF93DF93C2E0D1E088811E
:10E560008F77888384E00F94F2FC888180688883A9
:10E57000DF91CF9108951F93CF93DF93EB01182F75
:10E58000DADF809102018F778093020180E20F949D
:10E59000F2FC812F0F94F2FC8D2F0F94F2FC8C2F44
:10E5A0000F94F2FC80910201806880930201C0DF29
:10E5B0008111FDCFDF91CF911F91CDCFDF92EF92EF
:10E5C000FF920F931F93CF93DF93EB01D82E7A0125
:10E5D0008901809102018F778093020183E00F947B
:10E5E000F2FC8D2D0F94F2FC8D2F0F94F2FC8C2FEA
:10E5F0000F94F2FCE7010E0D1F1DC017D10769F43F
:10E6000080910201806880930201DF91CF911F9178
:10E610000F91FF90EF90DF90089580E00F94F2FC4F
:10E620008993EBCFE0915005ED3461F0E53541F091
:10E63000E63449F4705F8F4F9F4FC0DF81E008954B
:10E640000D9426FD19C780E008950F931F93CF9373
:10E65000DF9323E0FB0180935B0020935700E89554
:10E6600007B600FCFDCFEA0100E010E0980141E0B0
:10E67000A991B9910D01F80120935B0040935700D7
:10E68000E89511240E5F1F4F2F4F3F4F011551E0AA
:10E6900015072105310561F725E0FB0180935B003B
:10E6A00020935700E89507B600FCFDCF81E18093E9
:10E6B0005700E895DF91CF911F910F9108952F9208
:10E6C0003F924F925F926F927F928F929F92AF9202
:10E6D000BF92CF92DF92EF92FF920F931F93CF934F
:10E6E000DF93CDB7DEB7CD5AD2400FB6F894DEBF78
:10E6F0000FBECDBF109250050F94E5FC0F94F8FCAF
:10E70000EEDE21E030E040E555E06FEF7FEFCB013A
:10E710000F9426FD882339F0809150058F3F19F41E
:10E7200085E58093500580915005811106C097D6EC
:10E73000882319F08DE48093500580915005811154
:10E7400003C086E48093500580915005882351F1E1
:10E7500080E2E0E0F2E0DE01A659BD4F01900D92AB
:10E760008A95E1F77E0181E0E80EF81E20E130E0B5
:10E77000A70160E070E0CB0155DFF7019081809147
:10E780005005933719F491819236A1F1853551F4F2
:10E7900030E020E050E040E06EEF7FEF8FEF9FEF42
:10E7A0000F9426FD80915005863429F460E070E1D5
:10E7B00080E090E0E0DE9EDE0F94EDFC0F9401FD22
:10E7C000C355DD4F0FB6F894DEBF0FBECDBFDF914E
:10E7D000CF911F910F91FF90EF90DF90CF90BF905E
:10E7E000AF909F908F907F906F905F904F903F90F1
:10E7F0002F9008959281903349F49381913331F4AD
:10E800009481903319F49581903359F0853551F600
:10E8100030E020E050E040E06DEF7FEF8FEF9FEFC2
:10E82000BFCF853551F430E020E050E040E06CEFA0
:10E830007FEF8FEF9FEF0F9426FD20E130E0AE01D8
:10E8400042565D4F60EF70E080E090E0EBDECE017D
:10E850008F5F9D4FCAD740E250E0BE0166597D4FA1
:10E86000CE018F5F9D4FF0D740E150E0BE01625670
:10E870007D4FCE018F5F9D4FE7D7812C912C5401A6
:10E8800014E08EB181278EB9FFEF9F1AAF0ABF0A3D
:10E8900020E031E0A701C501B401C4DE8111A8C0A8
:10E8A000BE0166577D4FCE018F5F9D4F0F9467FC71
:10E8B00024E130E0A70160E170E080E090E0B2DEAA
:10E8C00044E150E0BE0166577D4FC7010F942FFE13
:10E8D00020915005892B09F09BC0253551F430E07B
:10E8E00020E050E040E06AEF7FEF8FEF9FEF0F9462
:10E8F00026FD812C912C5401D12CC12C8EB194E099
:10E9000089278EB924013501EFEF5E1A6E0A7E0A5F
:10E9100020E031E0AE014F5F5F4FC301B20182DE04
:10E92000882309F455C08E0102561D4F9E012659B9
:10E930003D4F40E051E0BE016F5F7F4FC7017CDD7E
:10E9400080E1FE01EF50FF4FD80101900D928A95B2
:10E95000E1F79CEF292E312C8114FFED9F06F3E0A7
:10E96000AF06B10418F4212C332433948701C80175
:10E970008E199F098215930508F456C08114FFED86
:10E980009F06F3E0AF06B104A1F4C350DE4F6881E7
:10E99000CD5FD140C60194DDC250DE4F6881CE5FAD
:10E9A000D1408EDD6C01C150DE4F99838883CF5FEB
:10E9B000D140A701C501B40148DE530142018114D1
:10E9C00080EE980683E0A806B10409F097CF81E0B5
:10E9D00090915005953509F0E5CE30E020E050E00B
:10E9E00040E0882341F169EF7FEF8FEF9FEFD8CEB2
:10E9F00040E051E0B701CE018F5F9D4F25D78114D4
:10EA000080EE980683E0A806B10409F03ACF48CF1B
:10EA1000253509F0C7CE30E020E050E040E06BEF54
:10EA20007FEF8FEF9FEFBCCEF80161918F01C601A0
:10EA300047DD6C019CCF68EF7FEF8FEF9FEFB0CE8B
:10EA4000CF92DF92EF92FF926A9A9D9AA59814BE98
:10EA50000FB6F894A895809160008861809360005B
:10EA6000109260000FBE2BDE90E080E0C12CD12C14
:10EA70007601EBBEF601679123DD2FEFC21AD20AB1
:10EA8000E20AF20AC11430EED30633E0E306F104E1
:10EA900081F7892B71F094E08EB189278EB98FEFC1
:10EAA00023ED30E3815020403040E1F700C000000A
:10EAB000F3CF0C94000090E080E0FF90EF90DF90A7
:10EAC000CF900895FF920F931F93CF93DF93C82F9A
:10EAD000D42F152F062FF72E87FF08C040E050E0F7
:10EAE000BA0187E7EFDF8230F8F4CF778091050134
:10EAF0008F77809305018C2F75D78F2D73D7802F3B
:10EB000071D7812F6FD78D2F6DD785E9C03421F054
:10EB100087E8C83409F081E065D7CAE08FEF62D793
:10EB200087FF02C0C150D1F7DF91CF911F910F91A4
:10EB3000FF900895CF92DF92EF92FF920F931F9371
:10EB4000CF93DF9300D01F92CDB7DEB73ED7809131
:10EB5000040180688093040184E6EFE8F1E03197D6
:10EB6000F1F700C000008150C1F71AE08091050163
:10EB70008068809305018FEF35D71150B9F740E0D9
:10EB800050E0BA0180E49EDF182F813009F04AC0BE
:10EB90004AEA51E060E070E088E494DF813009F0F7
:10EBA0005BC0CE0101967C016E0195E0C90ED11CBF
:10EBB00087018FEF17D7F80181938F01CE16DF06FB
:10EBC000C1F78B81813071F58C818A3A59F590E1DA
:10EBD000C92E97E2D92E40E050E060E070E489EE63
:10EBE00071DF811115C040E050E0BA018AE76ADFA9
:10EBF000811118C08FEFF6D6F70181937F010E17B0
:10EC00001F07C1F7898114E086FF0DC01CE00BC00F
:10EC10008FE891E00197F1F700C0000091E0C91A78
:10EC2000D108C9F610E01093510580910501806864
:10EC3000809305018FEFD6D681E0111180E00F900F
:10EC40000F900F900F90DF91CF911F910F91FF9038
:10EC5000EF90DF90CF90089540E050E0BA0189EE48
:10EC600031DF01E4823010F412E009EE80E1E82E99
:10EC700087E2F82E40E050E0BA01802F23DF8111B7
:10EC800009C040E052E060E070E080E51BDF8111E8
:10EC9000C9CFC9CF8FE891E00197F1F700C000001C
:10ECA00091E0E91AF10831F7BDCFCF92DF92EF92F0
:10ECB000FF920F931F93CF93DF936C0179018091A3
:10ECC000510583FD07C089E0440F551F661F771F5C
:10ECD0008A95D1F781E5F6DE811108C0C0E4DCE950
:10ECE0008FEF80D68F3F21F42197D1F7C1E021C06B
:10ECF0008E3FE1F7C2E0D2E0C01BD10BCE19DF0995
:10ED0000E114F10431F08FEF6DD681E0E81AF108DB
:10ED1000F7CF76010C0D1D1D8FEF64D6F70181939F
:10ED20007F010E171F07C1F78FEF5CD62197E1F720
:10ED3000C0E0809105018068809305018FEF52D675
:10ED40008C2FDF91CF911F910F91FF90EF90DF906B
:10ED5000CF9008950F931F93E0914E05F0914F05CA
:10ED6000DC011297268137812250310960E070E082
:10ED7000CB01A217B30758F4228130E057D700899E
:10ED8000118922893389600F711F821F931F1F9180
:10ED90000F910895CF93DF93EC01E0914E05F09130
:10EDA0004F05198218828C819D8181309105B9F0BF
:10EDB000268137818217930790F49F838E83009773
:10EDC00049F0C8DF688779878A879B8780E0DF9171
:10EDD000CF9108956485758586859785F3CF81E009
:10EDE000F6CF0F931F93CF93DF9300D01F92CDB731
:10EDF000DEB78230910518F481E090E023C0E09105
:10EE00004E05F0914F052681378182179307A0F7B1
:10EE10002081223089F79C013327220F331F892F4D
:10EE200099274085518562857385480F591F611D5B
:10EE3000711D02E010E0CE01019637DF8111DCCFB9
:10EE400089819A810F900F900F900F90DF91CF9151
:10EE50001F910F910895CF92DF92EF92FF920F933F
:10EE60001F93CF93DF93EC016A017B0102E010E076
:10EE70002EEF31E01ADF81111DC08881998185351F
:10EE80009A4AD1F426E330E0B701A601CE010DDFA6
:10EE9000811114C081E0288139812634314409F47C
:10EEA00080E0DF91CF911F910F91FF90EF90DF9065
:10EEB000CF90089583E0F5CF82E0F3CF81E0F1CFEA
:10EEC0004F925F926F927F92AF92BF92CF92DF92FA
:10EED000EF92FF920F931F93CF93DF93CDB7DEB7DF
:10EEE000A8970FB6F894DEBF0FBECDBF5C0110929D
:10EEF0004F0510924E051EDE80FDD0C040E050E070
:10EF0000BA01CE010196A7DFC12CD12C7601813048
:10EF100081F500E110E02EEB31E040E050E0BA0175
:10EF2000CE010196C2DE8823B1F081E0A8960FB62B
:10EF3000F894DEBF0FBECDBFDF91CF911F910F912F
:10EF4000FF90EF90DF90CF90BF90AF907F906F9049
:10EF50005F904F9008958D81811102C086E0E6CFC9
:10EF6000C984DA84EB84FC84B701A601CE01019642
:10EF700072DF8330D1F28111F1CF04E210E02DE095
:10EF800030E0B701A601CE0101968FDE8111CDCF11
:10EF90002A853B8550E040E02115310521F4288D7C
:10EFA000398D4A8D5B8DAC81B0E04FD66DA37EA3C9
:10EFB0008FA398A74A815B8170E060E0C40ED51EE4
:10EFC000E61EF71ED5011896CD92DD92ED92FC92C9
:10EFD0001B97198112961C9312974D805E8015968F
:10EFE0005C924E9214978F819885B0E0A0E00097D4
:10EFF00021F48C899D89AE89BF8924E05694479479
:10F000002A95E1F7712C612C841B950BA60BB70B8D
:10F01000BC01CD012DA13EA14FA158A5621B730BD0
:10F02000840B950B6419750986099709212F30E027
:10F0300050E040E0D9D5DA01C9010296A11DB11D09
:10F04000F50197838683265F3F40410951092F3F91
:10F050003F4E4105510508F081CF82E0D5018C93E8
:10F060002DA13EA14FA158A5C20ED31EE41EF51E30
:10F070001C96CD92DD92ED92FC921F97C40CD51C8C
:10F08000E61CF71CF501C08AD18AE28AF38A118254
:10F09000B0924F05A0924E0580E048CF82E046CF67
:10F0A000AF92BF92CF92DF92EF92FF920F931F9396
:10F0B000CF93DF93CDB7DEB7E8970FB6F894DEBFF6
:10F0C0000FBECDBFC0904E05D0904F05C114D104E6
:10F0D00009F4FFC0F60111829E012F5D3F4F38AB4E
:10F0E0002FA79C017901F90180812F5F3F4F80326A
:10F0F000C9F38F3209F479011AAA19AAF70180819C
:10F10000803208F0A3C0CE018D9644DE1982882398
:10F1100009F4C3C0E8960FB6F894DEBF0FBECDBFAA
:10F12000DF91CF911F910F91FF90EF90DF90CF90E3
:10F13000BF90AF900895E30EF11C81E0913208F08A
:10F1400080E0F8018387CE018D9624DE8111E2CF25
:10F150002DA53EA52F70332775E0220F331F7A951A
:10F16000E1F74DA95EA96FA978AD00E210E0CE01EC
:10F1700001969BDD882311F081E0CCCF898181113C
:10F1800002C083E0C7CF1C8513FD0BC0AFA4B8A895
:10F190004BE050E0B501CE01019661D5892B09F411
:10F1A0004BC00DA51EA50F5F1F4F59F38DA99EA93A
:10F1B000AFA9B8AD0097A105B10519F398012F705B
:10F1C0003327232BA9F4A0904E05B0904F0501964C
:10F1D000A11DB11D8DAB9EABAFABB8AF8BA99CA9E8
:10F1E000F501009741F4848195810817190748F6C5
:10F1F0001EA70DA7ADCF22812150330BA80164E0DB
:10F20000569547956A95E1F724233523232B81F7FB
:10F21000E8DD8230910508F4AFCFF5012681378112
:10F220008217930708F0ADCF9CAB8BAB93DD6DAB32
:10F230007EAB8FAB98AFDCCFF501838581112DC0FC
:10F2400014FF9FCF8B8D9C8D9AAB89AB0FA518A90E
:10F250004BE050E060E270E0C8010ED520E0E0E055
:10F2600088E031E03E0FEE0DFF2DF11D90819132CF
:10F2700008F461CF9F3209F45ECF9E3261F1281706
:10F2800008F059CFF801E20FF11D9083982F81E02B
:10F29000820F282FE32F892FE4CF8981882309F457
:10F2A00070CF8C8584FD6DCF8B8D9C8DF601958FF5
:10F2B000848F8D8D9E8DAF8DB8A1808F918FA28F01
:10F2C000B38F148A158A168A178A81E0818380E0B9
:10F2D00021CF85E01FCF883009F02DCF9BE0D9CF1B
:10F2E0004F925F926F927F928F929F92AF92BF9256
:10F2F000CF92DF92EF92FF920F931F93CF93DF9302
:10F300004C017B015A01C0914E05D0914F05FA0185
:10F310001182108285E0209709F447C0898180FF1F
:10F320009CC0888D998DAA8DBB8D4C895D896E8915
:10F330007F89841B950BA60BB70BA70170E060E0DB
:10F3400084179507A607B70708F47C013401412C00
:10F3500032E0532EE114F10411F480E026C08C89D0
:10F360009D89AE89BF89AC01BD01517066277727A1
:10F37000452B462B472B09F03FC0DA80DA94AC01CD
:10F38000BD0129E076956795579547952A95D1F760
:10F39000D42211F5892B8A2B8B2BC1F48C8D9D8D5A
:10F3A00082309105B8F4198281E0DF91CF911F91ED
:10F3B0000F91FF90EF90DF90CF90BF90AF909F9014
:10F3C0008F907F906F905F904F9008958E8D9F8D5E
:10F3D00008DDE6CF9F8F8E8F8E8D9F8DBBDC6115F4
:10F3E000710581059105F9F26D0D711D811D911D4C
:10F3F00068A379A38AA39BA32C893D893170C2019C
:10F40000821B930B67018E159F0508F46C0148A1C0
:10F4100059A16AA17BA180E090E08114910409F0D8
:10F42000C301860142DC8111BECF8C899D89AE89E2
:10F43000BF898C0D9D1DA11DB11D8C8B9D8BAE8B2D
:10F44000BF8B6C0C7D1CEC18FD08F501808191814F
:10F45000C80ED91ED182C0827DCF84E0A6CF82E5BE
:10F4600095E02EDD811105C08FE494E019DE91E076
:10F47000811190E0892F0895EF92FF920F931F93CF
:10F48000CF93DF931F921F92CDB7DEB78A01790128
:10F49000672B682B692B99F0AE014F5F5F4FB70167
:10F4A000C8011EDF91E0811190E0892F0F900F902D
:10F4B000DF91CF911F910F91FF90EF9008958FE40E
:10F4C00094E0EEDD882341F3EFCF0F931F93FC010F
:10F4D00084859585A685B785808B918BA28BB38B10
:10F4E00080859185A285B38584879587A687B78710
:10F4F00084819581A681B7818C019D0136952795E0
:10F50000179507953695279517950795072E7EE150
:10F51000880F991FAA1FBB1F7A95D1F7702D802BDA
:10F52000912BA22BB32B80879187A287B3878081F1
:10F530009181A281B38184839583A683B78340831D
:10F540005183628373831F910F9108954F925F924D
:10F550006F927F928F929F92AF92BF92CF92DF92E3
:10F56000EF92FF920F931F93CF93DF93CDB7DEB748
:10F57000C455D1400FB6F894DEBF0FBECDBF6C01AD
:10F58000CE0101965C01CB01AE014F5B5F4FF501EF
:10F59000DC0160E0322F212F102F00277D91072BF7
:10F5A0006F5F6430B9F701931193219331930496FF
:10F5B0004E175F0769F795013395F501AF01349652
:10F5C000DA01D496ED90FD900D911C91D79790960D
:10F5D0004D905D906D907C909397E424F5240625E2
:10F5E000172518964D905D906D907C901B974E243A
:10F5F0005F24602671264D915D916D917C91D301C0
:10F60000C20184279527A627B727880F991FAA1F0D
:10F61000BB1F811D84AF95AFA6AFB7AF2E173F07B5
:10F6200069F67601B5E4EB0EF11C84E1F701DE0129
:10F63000AF5BBE4F01900D928A95E1F7912CA4E14A
:10F640008A2ECB5BDE4F88819981AA81BB81C5540C
:10F65000D140C75BDE4F088119812A813B81C954A3
:10F66000D140C35BDE4F488059806A807B80CD5497
:10F67000D140E3E1E91508F49EC0AC01BD0140951D
:10F6800050956095709544225522662277228023FA
:10F690009123A223B323482659266A267B26D50127
:10F6A0004D915D916D917D915D01CF5BDE4F8881C4
:10F6B0009981AA81BB81C154D1408C019D01E5E0B3
:10F6C000000F111F221F331FEA95D1F7FBE1B695FA
:10F6D000A79597958795FA95D1F7802B912BA22B1B
:10F6E000B32BCF5ADE4F088119812A813B81C15546
:10F6F000D140800F911FA21FB31F8C019D01040FE9
:10F70000151F261F371F892D682D62D2B4E08B9FED
:10F71000F0011124EC0DFD1DE75AFF4F408151818E
:10F7200062817381400F511F621F731F440D551D6D
:10F73000661D771DCE018F5B9E4FC7DE9394E0E57B
:10F740009E127FCFF701CE018F5B9E4F7C0199E522
:10F75000C90ED11C4191519161917191D7010D91C7
:10F760001D912D913D917D01CF010497400F511FB7
:10F77000621F731FDC014D935D936D937C93139710
:10F78000CE16DF0639F7CC5ADE4F0FB6F894DEBF3F
:10F790000FBECDBFDF91CF911F910F91FF90EF90E2
:10F7A000DF90CF90BF90AF909F908F907F906F90A1
:10F7B0005F904F900895F7E2F91528F08027912780
:10F7C000A227B32768CF4BE34915C0F3B901A801BD
:10F7D000442555256625772584239523A623B7231D
:10F7E000402251226222732256CFCF93DF93CDB7AE
:10F7F000DEB7A4970FB6F894DEBF0FBECDBFFC01F5
:10F80000E05CFF4F108231961082118212821382C7
:10F8100024E2E0E2F2E0DE01119601900D922A95D9
:10F82000E1F7DC01AB5BBF4F84E2FE013196019052
:10F830000D928A95E1F7A4960FB6F894DEBF0FBE3D
:10F84000CDBFDF91CF910895AF92BF92CF92DF925B
:10F85000EF92FF920F931F93CF93DF938C01EB01F5
:10F860007B01E40EF51E6C0180E4C80ED11C58012A
:10F87000E1E4AE0EB11CCE15DF0559F4DF91CF9156
:10F880001F910F91FF90EF90DF90CF90BF90AF90BE
:10F890000895F60180819991F801E80FF11D908398
:10F8A0008F5FF6018083803431F7B801C8014EDEE6
:10F8B000F50180819181A281B3819E5FAF4FBF4FDF
:10F8C00080839183A283B383F6011082D4CFEF9219
:10F8D000FF920F931F93CF93DF93EC018B017C0179
:10F8E00020E4E20EF11CF701908181E0890FDE0136
:10F8F000A90FB11DE82FF0E0983308F054C090E84C
:10F900009C93EC0FFD1F883309F04AC0F7018081FA
:10F91000F8E08F9FC0011124092E000CAA0BBB0B2D
:10F92000FE01EF5BFF4F4081518162817381840F43
:10F93000951FA61FB71F9E0128503109FE0187AFF2
:10F94000892F9A2FAB2FBB2731972E173F07B9F777
:10F95000BE01CE01FBDDC80128E18E01075A1F4F11
:10F96000FE01EB5BFF4FDC0141915191619171917F
:10F97000022E04C076956795579547950A94D2F75D
:10F980004C9314960E171F0779F701962850283FBD
:10F9900039F7DF91CF911F910F91FF90EF9008956C
:10F9A0008F5F1192B0CF90E89C93EC0FFD1F8034D5
:10F9B00048F0BE01CE01CADD88E3FE0111928A95AE
:10F9C000E9F7A4CF8F5F1192F2CF87E084B981E08D
:10F9D00085B98DBD80E58CBD089514B815B81DBCE2
:10F9E0001CBC08958EBD0DB407FEFDCF8EB50895E5
:10F9F00088E08093C4001092C50088E18093C10024
:10FA000008951092C4001092C5001092C10008958C
:10FA10009091C00095FFFCCF8093C600089590910F
:10FA2000C00097FD0DC0811103C08FEF9FEF0895B7
:10FA3000EFE8F1E03197F1F700C000008150EFCF1F
:10FA4000882399F38091C60090E008952F923F9209
:10FA50004F925F926F927F928F929F92AF92BF92DE
:10FA6000CF92DF92EF92FF920F931F93CF93DF938A
:10FA7000C62E5A01E901272E382E492E5D2ED12C93
:10FA80004A01820E931ED3948CE3C2DF82E7C0DF6B
:10FA90008C2DBEDF6C2D90E080E00F9460F28C0125
:10FAA000822DB6DF622DC8010F9460F28C01832D88
:10FAB000AFDF632DC8010F9460F28C01842DA8DFA5
:10FAC000642DC8010F9460F28C018C2FA1DF6C2F84
:10FAD000C8010F9460F28C01852D9ADF652DC80155
:10FAE0000F9460F28C0180E093DF60E0C8010F9416
:10FAF00060F28C0180E08CDF60E0C8010F9460F25E
:10FB00008C0180E085DF60E0C8010F9460F28C0119
:10FB100080E07EDF60E0C8010F9460F28C0180E03D
:10FB200077DF60E0C8010F9460F2192F71DF812F39
:10FB30006FDF8EE36DDF8FEF72DF97FD07C08130DF
:10FB4000910501F582E06BDF82E069DFF8E0DF120A
:10FB500014C080E0DF91CF911F910F91FF90EF9043
:10FB6000DF90CF90BF90AF909F908F907F906F90DD
:10FB70005F904F903F902F9008958AE050DF97FF5D
:10FB8000FCCF81CF892B11F760E090E080E00F94EB
:10FB900060F27C0185010815190569F482E03FDFF8
:10FBA0008C0182E03CDF612C0629182BE016F1065F
:10FBB00069F681E0CFCF82E032DF97FDC7CFF80151
:10FBC00081938F01682FC7010F9460F27C01E3CF0E
:10FBD000991B79E004C0991F961708F0961B881F9F
:10FBE0007A95C9F780950895A1E21A2EAA1BBB1B2E
:10FBF000FD010DC0AA1FBB1FEE1FFF1FA217B307F9
:10FC0000E407F50720F0A21BB30BE40BF50B661F0E
:10FC1000771F881F991F1A9469F7609570958095D2
:10FC200090959B01AC01BD01CF010895A29FB00149
:10FC3000B39FC001A39F700D811D1124911DB29F20
:10FC4000700D811D1124911D0895F0DFA59F900D69
:10FC5000B49F900DA49F800D911D11240895FB0168
:10FC6000DC0104C08D910190801921F44150504075
:10FC7000C8F7881B990B0895DC0101C06D934150B2
:0AFC80005040E0F70895F894FFCF1C
:10FC8A00FE0DED0535AFD09B9B580F3E30ACFB0DFA
:10FC9A00BF8F6C55DA79D67491CC2FF57F56FE75E5
:10FCAA000123456789ABCDEFFEDCBA987654321052
:10FCBA00F0E1D2C39979825AA1EBD96EDCBC1B8FD1
:10FCCA00D6C162CA8D01020408102040801B365238
:10FCDA00096AD53036A538BF40A39E81F3D7FB7C8D
:10FCEA00E339829B2FFF87348E4344C4DEE9CB5429
:10FCFA007B9432A6C2233DEE4C950B42FAC34E08C2
:10FD0A002EA16628D924B2765BA2496D8BD12572C1
:10FD1A00F8F66486689816D4A45CCC5D65B6926CD5
:10FD2A00704850FDEDB9DA5E154657A78D9D84904F
:10FD3A00D8AB008CBCD30AF7E45805B8B34506D053
:10FD4A002C1E8FCA3F0F02C1AFBD0301138A6B3A43
:10FD5A009111414F67DCEA97F2CFCEF0B4E6739681
:10FD6A00AC7422E7AD3585E2F937E81C75DF6E47DA
:10FD7A00F11A711D29C5896FB7620EAA18BE1BFC3C
:10FD8A00563E4BC6D279209ADBC0FE78CD5AF41F74
:10FD9A00DDA8338807C731B11210592780EC5F609C
:10FDAA00517FA919B54A0D2DE57A9F93C99CEFA0F9
:10FDBA00E03B4DAE2AF5B0C8EBBB3C8353996117C3
:10FDCA002B047EBA77D626E169146355210C7D632C
:10FDDA007C777BF26B6FC53001672BFED7AB76CA97
:10FDEA0082C97DFA5947F0ADD4A2AF9CA472C0B7BC
:10FDFA00FD9326363FF7CC34A5E5F171D8311504C9
:10FE0A00C723C31896059A071280E2EB27B2750931
:10FE1A00832C1A1B6E5AA0523BD6B329E32F845364
:10FE2A00D100ED20FCB15B6ACBBE394A4C58CFD029
:10FE3A00EFAAFB434D338545F9027F503C9FA851F9
:10FE4A00A3408F929D38F5BCB6DA2110FFF3D2CDCC
:10FE5A000C13EC5F974417C4A77E3D645D19736069
:10FE6A00814FDC222A908846EEB814DE5E0BDBE076
:10FE7A00323A0A4906245CC2D3AC629195E479E726
:10FE8A00C8376D8DD54EA96C56F4EA657AAE08BAB4
:10FE9A0078252E1CA6B4C6E8DD741F4BBD8B8A706C
:10FEAA003EB5664803F60E613557B986C11D9EE117
:10FEBA00F8981169D98E949B1E87E9CE5528DF8C54
:10FECA00A1890DBFE6426841992D0FB054BB167542
:08FEDA0070642E62696E0000E5
:040000033000E000E9
:00000001FF
