:020000023000CC
:10E0000071C000008FC000008DC000008BC00000F8
:10E0100089C0000087C0000085C0000083C00000E8
:10E0200081C000007FC000007DC000007BC00000F8
:10E0300079C0000077C0000075C0000073C0000008
:10E0400071C000006FC000006DC000006BC0000018
:10E0500069C0000067C0000065C0000063C0000028
:10E0600061C000005FC000005DC000005BC0000038
:10E0700059C0000057C0000055C0000053C0000048
:10E0800051C000004FC000004DC000004BC0000058
:10E0900049C0000047C0000045C0000043C0000068
:10E0A00041C000003FC000003DC000003BC0000078
:10E0B00039C0000037C0000035C0000033C0000088
:10E0C00031C000002FC000002DC000002BC0000098
:10E0D00029C0000027C0000025C0000023C00000A8
:10E0E00021C0000011241FBECFEFD1E2DEBFCDBFA3
:10E0F00001E00CBF14E0A0E0B2E0EAE2FFEF03E0D1
:10E100000BBF02C007900D92A835B107D9F715E0F3
:10E11000A8E5B4E001C01D92A637B107E1F7F4D439
:10E120000D9493FF6DCFCF93DF9360914C05709169
:10E130004D0590E1899FE001112440E050E0FA0193
:10E14000EC0FFD1FE45AFB4F20E030E0DB01A20F93
:10E15000B31F91918C9198279C932F5F3F4F243050
:10E160003105A1F74C5F5F4F6C5F7F4F4031510528
:10E1700031F7DF91CF910895982F991F9927991F13
:10E180002BE1929F902D1124880F892708952F92BB
:10E190003F924F925F926F927F928F929F92AF9237
:10E1A000BF92CF92DF92EF92FF920F931F93CF9384
:10E1B000DF93CDB7DEB72A970FB6F894DEBF0FBE58
:10E1C000CDBF8EE0B0DF8DE0382E00914C05109170
:10E1D0004D05F80185859185958795819187918178
:10E1E00095838183828192859283828786819685B9
:10E1F0009683868783819781938393859783978579
:10E20000938787875801980194E0D90180E0EC91C9
:10E21000F0E0E15BFD4F40814C938F5F14968430BA
:10E22000B1F791502F5F3F4F9111EFCF832D7BDFDF
:10E2300031101DC03A94FFEF3F12C7CF2A960FB698
:10E24000F894DEBF0FBECDBFDF91CF911F910F912C
:10E25000FF90EF90DF90CF90BF90AF909F908F9006
:10E260007F906F905F904F903F902F90089568013E
:10E2700063E0C60ED11CC80140969A838983F501DC
:10E2800010813601F2E06F1A7108F3016081F60126
:10E29000E2904F01F6010081812F68876DDF382FF2
:10E2A0003F836ADFF82E68DF582F6885862F5E83EC
:10E2B00063DF898761DF282F2D835EDF482E8E2D57
:10E2C0005BDF482F4C8358DF8A8756DF582E802F1C
:10E2D00053DF982F9B8350DF282E4EDF3F817F2D09
:10E2E00073275E817527F9857F277425EA857E2748
:10E2F000752578277027688576277E25F501708338
:10E30000798575272D81722774254C817427752591
:10E3100072257827712770277E25F30170831627D1
:10E32000F526F4244F256A85462745259B814927F4
:10E33000482704270127F401008335272327422695
:10E340005424592625248225E8261E25F60110830B
:10E35000F4E0AF0EB11C64E0C60ED11C89819A8135
:10E36000A816B90609F08BCF65CFA0915804B091DB
:10E370005904FC0191E1915029F08D91208182276F
:10E380008193F9CF0895CF92DF92EF92FF921F937E
:10E39000CF93DF9300D01F92CDB7DEB7E0915A0440
:10E3A000F0915B0480E2ACE5B4E001900D928A95B7
:10E3B000E1F728E734E0EFE7F4E088E0AE014F5FF3
:10E3C0005F4F14E0140FD901CD90DD90ED90FD90DA
:10E3D0009D01C982DA82EB82FC82982F977009F541
:10E3E00099816A8169836B816A836C816B839C8369
:10E3F000BA01DB019C91A92FB0E0A15BBC4F9C91BD
:10E40000DB019D93BD011A13F4CFA82FA695A69505
:10E41000A695B0E0AC5BBD4F69819C91962799832E
:10E420000FC0943069F4BA01DB019C91A92FB0E0D0
:10E43000A15BBC4F9C91DB019D93BD011A13F4CFEE
:10E44000DF0193976C9199819627D9019C937F0165
:10E45000B2E0EB1AF108BF0162527109DB016C9165
:10E460009A819627D7019C937F01B1E0EB1AF108BE
:10E47000BF0161527109DB016C919B819627D70125
:10E480009C935F976C919C81962790838F5F3496C5
:10E490008C3309F098CF0F900F900F900F90DF9171
:10E4A000CF911F91FF90EF90DF90CF9008957F92D2
:10E4B0008F929F92AF92BF92CF92DF92EF92FF9294
:10E4C0000F931F93CF93DF935C014B016A0130934D
:10E4D0005B0420935A0457DF1093590400935804A7
:10E4E000C0E0D0E080E1782E7401EC0EFD1E8501C5
:10E4F0000C0F1D1FCC15DD05A0F4F701D801872DE9
:10E5000001900D928A95E1F710934D0500934C050B
:10E510003EDEC8012ADFF0925904E092580460966A
:10E52000E3CFDF91CF911F910F91FF90EF90DF909C
:10E53000CF90BF90AF909F908F907F90089528E0EC
:10E54000AC0146279695879540FF04C031E08327AC
:10E5500030EA93276695215099F70895E1E0F1E0BC
:10E56000808180688083E2E0F1E080818068808340
:10E570000895E1E0F1E080818F778083E2E0F1E0CF
:10E5800080818F7780830895CF93DF93C2E0D1E0BD
:10E5900088818F77888385E00F9439FE80E00F941F
:10E5A00039FE988190689883DF91CF910895ECDFD0
:10E5B00081700895CF93DF93C2E0D1E088818F7797
:10E5C000888386E00F9439FE888180688883DF9194
:10E5D000CF910895CF93DF93C2E0D1E088818F7708
:10E5E000888384E00F9439FE888180688883DF9176
:10E5F000CF9108951F93CF93DF931F921F92CDB7B2
:10E60000DEB7182F6A837983D5DF909102019F7757
:10E610009093020180E20F9439FE812F0F9439FE0E
:10E620007981872F0F9439FE6A81862F0F9439FEE6
:10E6300080910201806880930201B9DF8111FDCFD2
:10E640000F900F90DF91CF911F91C4CFEF92FF9267
:10E650000F931F93CF93DF9300D01F92CDB7DEB7F8
:10E66000F82E8901909102019F779093020183E037
:10E670004B835C836A8379830F9439FE8F2D0F94CB
:10E6800039FE7981872F0F9439FE6A81862F0F9486
:10E6900039FE4B81E42E5C81F52E0E0D1F1DE01618
:10E6A000F10639F080E00F9439FEF70181937F0184
:10E6B000F6CF809102018068809302010F900F9045
:10E6C0000F900F90DF91CF911F910F91FF90EF90DE
:10E6D0000895E0915005ED3481F0E53561F0E634C0
:10E6E00069F4DC01CB01BC01CD01705F8F4F9F4FFE
:10E6F000ADDF81E008950D946DFECDC780E00895F3
:10E700000F931F93CF93DF9323E0FB0180935B0074
:10E7100020935700E89507B600FCFDCFEA0100E022
:10E7200010E0980141E0A991B9910D01F801209301
:10E730005B0040935700E89511240E5F1F4F2F4F49
:10E740003F4F011551E015072105310561F725E01F
:10E75000FB0180935B0020935700E89507B600FC0F
:10E76000FDCF81E180935700E895DF91CF911F9114
:10E770000F9108952F923F924F925F926F927F92E6
:10E780008F929F92AF92BF92CF92DF92EF92FF92C1
:10E790000F931F93CF93DF93CDB7DEB7CD5AD240FF
:10E7A0000FB6F894DEBF0FBECDBF109250050F9488
:10E7B0002CFE0F943FFED2DE21E030E040E555E034
:10E7C0006FEF7FEFCB010F946DFE882339F08091BE
:10E7D00050058F3F19F485E58093500580915005D1
:10E7E000811106C04BD7882319F08DE48093500522
:10E7F00080915005811103C086E48093500580917B
:10E800005005882309F458C180E2E0E0F2E0DE011F
:10E81000A659BD4F01900D928A95E1F77E0181E0E6
:10E82000E80EF81E20E130E0A70160E070E0CB01C7
:10E8300050DFF701908180915005933719F4918151
:10E84000923661F0853509F037C120E030E040E0D4
:10E8500050E06EEF7FEF8FEF9FEF2CC1F7019281B9
:10E86000903349F49381913331F49481903319F4C6
:10E870009581903361F0853509F01EC120E030E0CC
:10E8800040E050E06DEF7FEF8FEF9FEF13C18535D4
:10E8900051F420E030E040E050E06CEF7FEF8FEF8C
:10E8A0009FEF0F946DFE20E130E0AE0142565D4FC8
:10E8B00060EF70E080E090E00CDFCE018F5F9D4F55
:10E8C0000F9439FD40E250E0BE0166597D4FCE0104
:10E8D0008F5F9D4F0F9468FD40E150E0BE0162568E
:10E8E0007D4FCE018F5F9D4F0F9468FD812C912C41
:10E8F000540114E08EB181278EB9FFEF9F1AAF0A41
:10E90000BF0A20E031E0A701C501B401E2DE8111B8
:10E910001DC0BE0166577D4FCE018F5F9D4F0F9486
:10E92000ABFD24E130E0A70160E170E080E090E021
:10E93000D0DE44E150E0BE0166577D4FC7010F9421
:10E940007FFF20915005892B89F41CC040E051E0E5
:10E95000B701CE018F5F9D4F0F9468FD811480EE4B
:10E96000980683E0A806B10429F6D3CF253509F02F
:10E97000A3C020E030E040E050E06BEF7FEF8FEF8E
:10E980009FEF98C0253551F420E030E040E050E0A2
:10E990006AEF7FEF8FEF9FEF0F946DFE812C912C2C
:10E9A0005401D12CC12C8EB194E089278EB9240159
:10E9B0003501EFEF5E1A6E0A7E0A20E031E0AE010B
:10E9C0004F5F5F4FC301B20184DE882309F45FC04B
:10E9D0008E0102561D4F9E0126593D4F40E051E0E9
:10E9E000BE016F5F7F4FC70162DDFE01EF50FF4F39
:10E9F000D80180E101900D928A95E1F711E0811430
:10EA0000FFED9F06F3E0AF06B10408F410E0170134
:10EA10008D2D9C2DB1016E197F09111103C040E0AD
:10EA200051E002C04CEF50E06417750728F4F10183
:10EA300061911F0184DDEECFD82EC92E1123C1F0C4
:10EA4000C350DE4F6881CD5FD14079DDC250DE4FCB
:10EA50006881CE5FD14073DDD82EC92EC150DE4F04
:10EA60008883CF5FD140C050DE4F9883C050D240E2
:10EA7000A701C501B40144DE530142014114F0EE87
:10EA80005F06F3E06F06710409F08DCF81E090918D
:10EA90005005953589F420E030E040E050E08823CF
:10EAA00029F069EF7FEF8FEF9FEF04C068EF7FEFF2
:10EAB0008FEF9FEF0F946DFE80915005863429F4FF
:10EAC00060E070E180E090E095DD53DD0F9434FE6E
:10EAD0000F9448FEC355DD4F0FB6F894DEBF0FBE4E
:10EAE000CDBFDF91CF911F910F91FF90EF90DF90FD
:10EAF000CF90BF90AF909F908F907F906F905F90DE
:10EB00004F903F902F900895CF92DF92EF92FF9217
:10EB10006A9A9D9AA59814BE88E10FB6F8948093DE
:10EB20006000109260000FBE25DE80E090E0C12CF6
:10EB3000D12C7601EBBEF601679101DD2FEFC21AF1
:10EB4000D20AE20AF20AC11430EED30633E0E30639
:10EB5000F10481F7892B71F094E08EB189278EB989
:10EB60008FEF23ED30E3815020403040E1F700C0CB
:10EB70000000F3CF0C94000080E090E0FF90EF9055
:10EB8000DF90CF900895FF920F931F93CF93DF9361
:10EB9000C82FD42F152F062FF72E87FF08C040E06F
:10EBA00050E0BA0187E7EFDF823040F5CF779091F0
:10EBB00005019F77909305018C2F0F9439FE8F2DBF
:10EBC0000F9439FE802F0F9439FE812F0F9439FE58
:10EBD0008D2F0F9439FEC03421F0C83421F487E81A
:10EBE00003C085E901C081E00F9439FECAE08FEFD0
:10EBF0000F9439FE87FF02C0C150C9F7DF91CF9152
:10EC00001F910F91FF900895DF92EF92FF920F9363
:10EC10001F93CF93DF9300D01F92CDB7DEB70F9431
:10EC20002CFE8091040180688093040184E6EFE863
:10EC3000F1E03197F1F700C000008150C1F71AE010
:10EC4000809105018068809305018FEF0F9439FE54
:10EC50001150B1F740E050E0BA0180E494DF813018
:10EC600009F081C04AEA51E060E070E088E48BDF9F
:10EC7000813069F58E010F5F1F4F780124E0D22E9D
:10EC8000D00E8FEFF6D7F70181937F01DE12F9CF17
:10EC90008B81813009F067C08C818A3A09F063C0AA
:10ECA00090E1E92E97E2F92E40E050E060E070E458
:10ECB00089EE69DF882369F18FE891E00197F1F728
:10ECC00000C0000091E0E91AF10871F74CC040E083
:10ECD00050E0BA0189EE57DF823018F011E001E40C
:10ECE00002C012E009EE80E1E82E87E2F82E40E053
:10ECF00050E0BA01802F47DF882369F18FE891E067
:10ED00000197F1F700C0000091E0E91AF10879F7E6
:10ED10002AC040E050E0BA018AE735DF811123C004
:10ED20008FEFA7D7F80181938F01DE12F9CF898188
:10ED300086FD02C014E001C01CE0109351058091D3
:10ED400005018068809305018FEF93D781E011233F
:10ED500061F080E00AC040E052E060E070E080E5F1
:10ED600012DF882351F310E0E8CF0F900F900F903F
:10ED70000F90DF91CF911F910F91FF90EF90DF9057
:10ED80000895CF92DF92EF92FF920F931F93CF934C
:10ED9000DF93D82EC92E79018091510583FD07C0DC
:10EDA00089E0440F551F661F771F8A95D1F781E5CB
:10EDB000EADE882311F0C1E02AC0C0E4DCE98FEF6D
:10EDC00058D78F3F19F42197D1F7F5CF8E3F99F798
:10EDD000C2E0D2E0C01BD10BCE19DF09E114F1046F
:10EDE00019F4ED2CFC2C06C08FEF43D781E0E81A14
:10EDF000F108F4CF8FEF3DD7F70181937F010150E8
:10EE00001109C1F78FEF35D72197E1F7C0E0909155
:10EE100005019068909305018FEF2BD78C2FDF9120
:10EE2000CF911F910F91FF90EF90DF90CF900895B9
:10EE30000F931F93E0914E05F0914F059C012250D6
:10EE4000310946815781425051092417350768F42A
:10EE5000A281B0E00F9438FF00891189228933899B
:10EE6000600F711F821F931F03C060E070E0CB0131
:10EE70001F910F910895CF93DF93FC01A0914E0550
:10EE8000B0914F0511821082848195818130910566
:10EE9000D1F016962D913C9117978217930798F40D
:10EEA000EF0197838683009711F0C2DF06C01C969E
:10EEB0006D917D918D919C911F97688779878A8745
:10EEC0009B8780E001C081E0DF91CF9108950F938F
:10EED0001F93CF93DF9300D01F92CDB7DEB7E091A1
:10EEE0004E05F0914F058230910520F12681378142
:10EEF00082179307F8F420812230E1F49C01332734
:10EF0000220F331F892F992740855185628573858C
:10EF1000480F591F611D711D02E010E0CE010196DE
:10EF200030DF811107C08A8190E0982F88272981DE
:10EF3000822B02C081E090E00F900F900F900F9015
:10EF4000DF91CF911F910F910895CF92DF92EF92B1
:10EF5000FF920F931F93CF93DF93EC016A017B0124
:10EF600002E010E02EEF31E00CDF81111DC029819D
:10EF700030E0322F22278881282B25353A4AB1F4F8
:10EF800026E330E0B701A601CE01FBDE811110C0FF
:10EF9000298130E0322F22278881282B81E02634F6
:10EFA000314439F480E005C083E003C082E001C051
:10EFB00081E0DF91CF911F910F91FF90EF90DF9053
:10EFC000CF9008954F925F926F927F928F929F920F
:10EFD000AF92BF92DF92EF92FF920F931F93CF9366
:10EFE000DF93CDB7DEB7E0970FB6F894DEBF0FBE64
:10EFF000CDBF7C0110924F0510924E0505DE80FDBD
:10F0000029C140E050E0BA01CE0101969EDF813077
:10F0100091F500E110E02EEB31E040E050E0BA0164
:10F02000CE010196AEDE882311F081E014C18D81FE
:10F03000811102C086E00FC18C858B84912CA12C9C
:10F04000B12C540199248824B82A8985950184011A
:10F05000082BD901C8018A84912C982C8824A12CD2
:10F06000B12C882A992AAA2ABB2AB501A401CE016B
:10F0700001966BDF03C0812C912C54018330A9F2DF
:10F080008111D8CF04E210E02DE030E0B501A401F9
:10F09000CE01019676DE8111C8CF2B8530E0322F6C
:10F0A00022278A85282B2115310519F040E050E0F0
:10F0B00018C08B8D2A8D422F50E060E070E0BA01BD
:10F0C00055274427782B888D482B898D90E0982FE1
:10F0D0008827A0E0B0E09A01AB01282B392B4A2BFE
:10F0E0005B2BAC81B0E0D3D62B013C016B8170E08F
:10F0F000762F66278A81682B9B0140E050E029A784
:10F100003AA74BA75CA7820E931EA41EB51ED7017B
:10F1100018968D929D92AD92BC921B97D9801296B3
:10F12000DC9212974E8150E0542F44272D81422BC0
:10F1300015965C934E931497288530E0322F222742
:10F14000EF812E2B2115310521F0890120E030E0DF
:10F1500022C0FF89EE890E2F10E020E030E09801F8
:10F16000112700273F2BEC89C901B8016E2B6DA731
:10F170007EA78FA798ABED89AE2FB0E0FA2FEE27D0
:10F18000CF01A0E0B0E00DA51EA52FA538A9082B42
:10F19000192B2A2B3B2B84E0569547958A95E1F74E
:10F1A000BA0180E090E06DA37EA38FA398A7D90158
:10F1B000C80149A55AA56BA57CA5841B950BA60B78
:10F1C000B70B84199509A609B709BC01CD010DA19A
:10F1D0001EA12FA138A5601B710B820B930B2D2D47
:10F1E00030E040E050E069D6DA01C9010296A11D85
:10F1F000B11DF70197838683DA01C901865F9F40BD
:10F20000A109B1098F3F9F4EA105B10508F012CFAA
:10F2100082E0D7018C93840C951CA61CB71CF701C7
:10F2200084869586A686B7860DA11EA12FA138A536
:10F23000800E911EA21EB31E50968D929D92AD928D
:10F24000BC92539711961C92F0924F05E0924E0596
:10F2500080E001C082E0E0960FB6F894DEBF0FBEFA
:10F26000CDBFDF91CF911F910F91FF90EF90DF9075
:10F27000BF90AF909F908F907F906F905F904F90D6
:10F280000895AF92BF92CF92DF92EF92FF920F93C9
:10F290001F93CF93DF93CDB7DEB7E8970FB6F894FF
:10F2A000DEBF0FBECDBFE0904E05F0904F05E114DC
:10F2B000F10409F403C1F70111829E012F5D3F4F54
:10F2C00038AB2FA7FC012E2F9F2F81918032D9F3CD
:10F2D000C22ED92E8F3219F4FFEFCF1ADF0A1AAAE5
:10F2E00019AAF6018081803208F05DC0CE018D96AA
:10F2F000C2DD1982882309F4B1C0ECC02F3299F025
:10F300002E3209F4E1C0931770F4F801E90FF11DF2
:10F3100020839F5F842F41E0480FF601E80FF11D25
:10F320002081213258F7C40ED11C81E0213208F02F
:10F3300080E0F8018387CE018D969DDD8111CAC0E2
:10F340002DA53EA52F703327F5E0220F331FFA9528
:10F35000E1F74DA95EA96FA978AD00E210E0CE01FA
:10F3600001960FDD8111ACC08981882309F4AAC000
:10F37000BC84B3FC24C00FA518A94BE050E0B80131
:10F38000CE010196BCD5892BD1F4F801838581117A
:10F3900065C0B4FE97C08C8D90E0982F88272B8D88
:10F3A000822B9AAB89AB0FA518A94BE050E060E225
:10F3B00070E0C801B1D590E080E038E0ACCFA0901B
:10F3C0004E05B0904F050DA51EA50F5F1F4F09F408
:10F3D00079C08DA99EA9AFA9B8AD0097A105B105C7
:10F3E00009F470C098012F703327232BA1F50196E3
:10F3F000A11DB11D8DAB9EABAFABB8AF8BA99CA9C6
:10F40000F501009739F4848195810817190708F0F0
:10F4100059C021C0228130E021503109A801E4E027
:10F4200056954795EA95E1F724233523232B99F444
:10F430004EDD8230910508F443C0F5012681378105
:10F440008217930708F03EC09CAB8BABF1DC6DAB31
:10F450007EAB8FAB98AF1EA70DA772CF8981882393
:10F4600089F18C8584FD2EC08C8D90E0982F8827A3
:10F470002B8D822BF701958F848F28A18F8D90E0A3
:10F48000A0E0B0E0DC0199278827B22B2D8D822BDC
:10F490004E8D50E0542F442760E070E0842B952B74
:10F4A000A62BB72B808F918FA28FB38F148A158ACA
:10F4B000168A178A81E0818380E00CC085E00AC04B
:10F4C00081E008C083E006C0383009F02CCF98E016
:10F4D0003BE020CFE8960FB6F894DEBF0FBECDBF5D
:10F4E000DF91CF911F910F91FF90EF90DF90CF9020
:10F4F000BF90AF9008954F925F926F927F928F92DC
:10F500009F92AF92BF92CF92DF92EF92FF920F93B2
:10F510001F93CF93DF934C016B015A01C0914E05AD
:10F52000D0914F05FA0111821082209709F492C000
:10F53000898180FF91C0888D998DAA8DBB8D4C8962
:10F540005D896E897F89841B950BA60BB70BA6017D
:10F5500060E070E084179507A607B70708F46C0110
:10F560003401412C32E0532EC114D10409F470C08F
:10F570008C899D89AE89BF89AC01BD015170662718
:10F580007727452B462B472B71F5FA80FA94AC016F
:10F59000BD0129E076956795579547952A95D1F74E
:10F5A000F42279F4892B8A2B8B2B19F48C8D9D8D69
:10F5B00003C08E8D9F8D8BDC8230910570F19F8F03
:10F5C0008E8F8E8D9F8D34DC6115710581059105BF
:10F5D00021F1DC01CB018F0D911DA11DB11D88A36F
:10F5E00099A3AAA3BBA32C893D893170C201821BB8
:10F5F000930B76018C159D0508F47C0148A159A157
:10F600006AA17BA18114910411F0C30102C080E0C2
:10F6100090E08701B6DB882319F0198281E01DC0D4
:10F620008C899D89AE89BF898E0D9F1DA11DB11D3D
:10F630008C8B9D8BAE8BBF8B6E0C7F1CCE18DF0826
:10F64000F50180819181E80EF91EF182E0828CCF74
:10F6500080E003C085E001C084E0DF91CF911F917D
:10F660000F91FF90EF90DF90CF90BF90AF909F9061
:10F670008F907F906F905F904F90089582E595E016
:10F68000A1DC811105C08FE494E0FBDD91E08111E4
:10F6900090E0892F0895EF92FF920F931F93CF93DD
:10F6A000DF931F921F92CDB7DEB78A017901672BD6
:10F6B000682B692B51F0AE014F5F5F4FB701C80156
:10F6C0001ADF91E0882339F005C08FE494E0D9DD9A
:10F6D000882389F390E0892F0F900F90DF91CF91CD
:10F6E0001F910F91FF90EF9008950F931F93FC01CE
:10F6F00084859585A685B785808B918BA28BB38BEE
:10F7000080859185A285B38584879587A687B787ED
:10F7100084819581A681B7818C019D0136952795BD
:10F72000179507953695279517950795072E7EE12E
:10F73000880F991FAA1FBB1F7A95D1F7702D802BB8
:10F74000912BA22BB32B80879187A287B3878081CF
:10F750009181A281B38184839583A683B7834083FB
:10F760005183628373831F910F9108954F925F922B
:10F770006F927F928F929F92AF92BF92CF92DF92C1
:10F78000EF92FF920F931F93CF93DF93CDB7DEB726
:10F79000C455D1400FB6F894DEBF0FBECDBF5C019B
:10F7A000CE0101964C01FC0120E030E080E090E0C9
:10F7B000FE2CED2CDC2CCC24DC01A20FB31FA60FF9
:10F7C000B71F4C91C42A01968430910589F7C192E4
:10F7D000D192E192F1922C5F3F4F2034310531F705
:10F7E000FE01B196AE014F5F5E4F9401DF0134968A
:10F7F000B9012C5F3F4FCD90DD90ED90FC901397B9
:10F8000054968D919D910D90BC91A02D2C013D01A0
:10F810004C245D246E247F24DB011896CD90DD906E
:10F82000ED90FC901B974C245D246E247F24CD909A
:10F83000DD90ED90FC90D301C2018C259D25AE2575
:10F84000BF25880F991FAA1FBB1F811D848F958F0D
:10F85000A68FB78F2417350749F67501B5E4EB0E6F
:10F86000F11C84E1F701DE01AF5BBE4F01900D9208
:10F870008A95E1F7D12CA4E1CA2EE3E1ED1518F148
:10F88000CB5BDE4F088119812A813B81C554D14071
:10F89000B901A8014095509560957095C35BDE4F06
:10F8A000488059806A807B80CD54D14044215521C5
:10F8B00066217721C75BDE4F88819981AA81BB8150
:10F8C000C954D14047C088ED8D0D843108F1C75B24
:10F8D000DE4F088119812A813B81C954D140CB5B1D
:10F8E000DE4F88819981AA81BB81C554D140082708
:10F8F00019272A273B27C35BDE4F488159816A813C
:10F900007B81CD54D14004271527262737272CC0CB
:10F91000C75BDE4F88819981AA81BB81C954D140E0
:10F92000C35BDE4F088119812A813B81CD54D140D0
:10F93000B901A801482759276A277B27CB5BDE4FEF
:10F94000488059806A807B80C554D140442155212C
:10F950006621772180239123A223B3238A019B016F
:10F96000082719272A273B27D4014D905D906D90D9
:10F970007D904D01CF5BDE4F88819981AA81BB814B
:10F98000C154D140AC01BD01E5E0440F551F661FD5
:10F99000771FEA95D1F7FBE1B695A79597958795DF
:10F9A000FA95D1F7842B952BA62BB72BCF5ADE4F88
:10F9B000488159816A817B81C155D140840F951F4F
:10F9C000A61FB71F480E591E6A1E7B1E8D2D6C2D5B
:10F9D00068D2F501B4E08B9FE00DF11D1124E75AC8
:10F9E000FF4F4081518162817381440E551E661E16
:10F9F000771EB301A201400F511F621F731FCE017A
:10FA00008F5B9E4F72DED394E0E5DE1236CFDE01CF
:10FA1000AF5BBE4FF70189E5A80EB11C4D915D911A
:10FA20006D917D910081118122813381400F511FA1
:10FA3000621F731F4193519361937193EA15FB0504
:10FA400069F7CC5ADE4F0FB6F894DEBF0FBECDBFBC
:10FA5000DF91CF911F910F91FF90EF90DF90CF90AA
:10FA6000BF90AF909F908F907F906F905F904F90DE
:10FA70000895CF93DF93CDB7DEB7A4970FB6F89470
:10FA8000DEBF0FBECDBFFC01E05CFF4F10823196A0
:10FA9000108211821282138224E2E0E2F2E0DE019F
:10FAA000119601900D922A95E1F7DC01AB5BBF4FF7
:10FAB00084E2FE01319601900D928A95E1F7A496B9
:10FAC0000FB6F894DEBF0FBECDBFDF91CF91089582
:10FAD000AF92BF92CF92DF92EF92FF920F931F935C
:10FAE000CF93DF938C01EB017B01E40EF51E6C01DB
:10FAF00080E4C80ED11C5801E1E4AE0EB11CCE1555
:10FB0000DF05F1F0F60180819991F801E80FF11D10
:10FB100090838F5FF6018083803489F7B801C80134
:10FB200025DEF50180819181A281B3819E5FAF4F77
:10FB3000BF4F80839183A283B383F6011082DFCF0E
:10FB4000DF91CF911F910F91FF90EF90DF90CF90B9
:10FB5000BF90AF900895CF92DF92EF92FF920F93F4
:10FB60001F93CF93DF93EC017B018C01005C1F4F4F
:10FB7000F801908181E0890F292F30E0FE01E20F2A
:10FB8000F31F983350F490E890838833C1F0FE015E
:10FB9000E80FF11D10828F5FF8CF90E890838034DA
:10FBA00030F4FE01E80FF11D10828F5FF8CFBE0127
:10FBB000CE01DCDD88E3FE0111928A95E9F7F801B8
:10FBC0008081F8E08F9FC0011124AA2797FDA0959E
:10FBD000BA2FFE01EF5BFF4F40815181628173813B
:10FBE000840F951FA61FB71FF8019E01285C3F4F89
:10FBF0008293892F9A2FAB2FBB27E217F307C1F708
:10FC0000BE01CE01B3DDC70128E1CB5BDF4FFE01B2
:10FC100040E050E0C190D190E190F190DC01A40F60
:10FC2000B51F022E04C0F694E794D794C7940A94A3
:10FC3000D2F7CC924C5F5F4F4431510559F72850B1
:10FC40000196283F21F7DF91CF911F910F91FF90EF
:10FC5000EF90DF90CF90089587E084B981E085B977
:10FC60008DBD80E58CBD089514B815B81DBC1CBCB5
:10FC700008958EBD0DB407FEFDCF8EB5089588E0C2
:10FC80008093C4001092C50088E18093C10008955C
:10FC90001092C4001092C5001092C1000895909176
:10FCA000C00095FFFCCF8093C60008959091C000DE
:10FCB00097FD0AC0882371F0EFE8F1E03197F1F782
:10FCC00000C000008150F2CF882321F08091C6004F
:10FCD00090E008958FEF9FEF08952F923F924F92FB
:10FCE0005F926F927F928F929F92AF92BF92CF92CC
:10FCF000DF92EF92FF920F931F93CF93DF9300D089
:10FD0000CDB7DEB7562E3A013B832A83272E382EF5
:10FD1000492E0B8110E04901840E951E1F5F8CE374
:10FD2000BEDF82E7BCDF852DBADF652D80E090E085
:10FD30000F949FF27C01822DB2DF622DC7010F94D8
:10FD40009FF27C01832DABDF632DC7010F949FF2DF
:10FD50007C01842DA4DF642DC7010F949FF27C01E8
:10FD60008A819DDF6A81C7010F949FF27C01802FF9
:10FD700096DF602FC7010F949FF27C0180E08FDF38
:10FD800060E0C7010F949FF27C0180E088DF60E0B3
:10FD9000C7010F949FF27C0180E081DF60E0C70122
:10FDA0000F949FF27C0180E07ADF60E0C7010F943E
:10FDB0009FF27C0180E073DF60E0C7010F949FF247
:10FDC00099836DDF9981892F6ADF8EE368DF8FEF7A
:10FDD0006DDF97FD2FC08130910529F482E066DF49
:10FDE00082E064DF27C0892B29F560E080E090E0A5
:10FDF0000F949FF27C016301C814D90469F082E07A
:10FE000055DF97FD17C0F60181936F01682FC70179
:10FE10000F949FF27C01F0CF82E048DF6C0182E01A
:10FE200045DFB82EA12CCA28DB28EC14FD0411F400
:10FE300081E008C0183029F08AE038DF97FFFCCF56
:10FE40006DCF80E00F900F900F90DF91CF911F91B9
:10FE50000F91FF90EF90DF90CF90BF90AF909F9069
:10FE60008F907F906F905F904F903F902F9008956C
:10FE7000A29FB001B39FC001A39F700D811D1124EB
:10FE8000911DB29F700D811D1124911D0895F0DF09
:10FE9000A59F900DB49F900DA49F800D911D1124DE
:10FEA0000895991B79E004C0991F961708F0961BD6
:10FEB000881F7A95C9F780950895A1E21A2EAA1B8A
:10FEC000BB1BFD010DC0AA1FBB1FEE1FFF1FA2170A
:10FED000B307E407F50720F0A21BB30BE40BF50B07
:10FEE000661F771F881F991F1A9469F76095709590
:10FEF000809590959B01AC01BD01CF010895FB0158
:10FF0000DC0104C08D910190801921F441505040D2
:10FF1000C8F7881B990B0895DC0101C06D9341500F
:0AFF20005040E0F70895F894FFCF79
:10FF2A00FE0DED0535AFD09B9B580F3E30ACFB0D57
:10FF3A00BF8F6C55DA79D67491CC2FF57F56FE7542
:10FF4A000123456789ABCDEFFEDCBA9876543210AF
:10FF5A00F0E1D2C39979825AA1EBD96EDCBC1B8F2E
:10FF6A00D6C162CA8D01020408102040801B365295
:10FF7A00096AD53036A538BF40A39E81F3D7FB7CEA
:10FF8A00E339829B2FFF87348E4344C4DEE9CB5486
:10FF9A007B9432A6C2233DEE4C950B42FAC34E081F
:10FFAA002EA16628D924B2765BA2496D8BD125721F
:10FFBA00F8F66486689816D4A45CCC5D65B6926C33
:10FFCA00704850FDEDB9DA5E154657A78D9D8490AD
:10FFDA00D8AB008CBCD30AF7E45805B8B34506D0B1
:10FFEA002C1E8FCA3F0F02C1AFBD0301138A6B3AA1
:06FFFA009111414F67DC8C
:020000024000BC
:10000000EA97F2CFCEF0B4E67396AC7422E7AD3542
:1000100085E2F937E81C75DF6E47F11A711D29C5B5
:10002000896FB7620EAA18BE1BFC563E4BC6D2792A
:10003000209ADBC0FE78CD5AF41FDDA8338807C7AD
:1000400031B11210592780EC5F60517FA919B54A70
:100050000D2DE57A9F93C99CEFA0E03B4DAE2AF5AC
:10006000B0C8EBBB3C83539961172B047EBA77D69B
:1000700026E169146355210C7D637C777BF26B6FFD
:10008000C53001672BFED7AB76CA82C97DFA5947C6
:10009000F0ADD4A2AF9CA472C0B7FD9326363FF753
:1000A000CC34A5E5F171D8311504C723C3189605E2
:1000B0009A071280E2EB27B27509832C1A1B6E5A3D
:1000C000A0523BD6B329E32F8453D100ED20FCB1DD
:1000D0005B6ACBBE394A4C58CFD0EFAAFB434D33B5
:1000E0008545F9027F503C9FA851A3408F929D38CF
:1000F000F5BCB6DA2110FFF3D2CD0C13EC5F9744B8
:1001000017C4A77E3D645D197360814FDC222A907D
:100110008846EEB814DE5E0BDBE0323A0A4906246C
:100120005CC2D3AC629195E479E7C8376D8DD54E4A
:10013000A96C56F4EA657AAE08BA78252E1CA6B4E6
:10014000C6E8DD741F4BBD8B8A703EB5664803F66A
:100150000E613557B986C11D9EE1F8981169D98E97
:10016000949B1E87E9CE5528DF8CA1890DBFE642FE
:100170006841992D0FB054BB167570642E62696E7C
:0201800000007D
:040000033000E000E9
:00000001FF
